:08000000803102288731FD2F39
:100F6E0042019F159C0167309B001E139E161E1298
:100F7E009E111E151D131D169D1708008731B727CC
:100F8E0087310030F0008830F1000530F800780825
:100F9E00F2008731D6278731C82F80310228710899
:100FAE00F5007008F400F601F701EF2F4E010F1E49
:100FBE00E12FE22FDD2F7408760784007508773D48
:100FCE008500000842019A000130F6070030F73D17
:100FDE007708803AF30080307302031DF82F7208F1
:100FEE007602031CFB2FFC2FDD2F080040018731FA
:0E0FFE00C52F683465346C346C346F340034A5
:00000001FF
